S00C000074656D702E7372656362
S1130000732540F193050000630CB500B7020001AD
S113001013038001B382A202B382620067800200EC
S1130020930000001301000093010000130200007C
S11300309302000013030000930300001304000064
S1130040930400001305000093050000130600004C
S11300509306000013070000930700001308000034
S1130060930800001309000093090000130A00001C
S1130070930A0000130B0000930B0000130C000004
S1130080930C0000130D0000930D0000130E0000EC
S1130090930E0000130F0000930F0000B7E201005D
S11300A073A00230178100001301C195731001344D
S11300B0930210009392F20163DA02001305100018
S11300C09712000023A0A2F46FF05FFF97020000D4
S11300D093824204739052309731000093818110CF
S11300E0178200001302F2A5137202FC732540F17B
S11300F0930560006370B500131615013302C20046
S11301001301150013111101330141006F10900107
S113011073110134130101EF23341100233821003A
S1130120233C31002330410223345102233861023D
S1130130233C710223308104233491042338A10425
S1130140233CB1042330C1062334D1062338E1060D
S1130150233CF106233001092334110923382109F2
S1130160233C31092330410B2334510B2338610BD9
S1130170233C710B2330810D2334910D2338A10DC1
S1130180233CB10D2330C10F2334D10F2338E10FA9
S1130190233CF10F73252034F3251034130601009A
S11301A0EF10006673101534B72200009B820280A2
S11301B073A0023083308100033101018331810156
S11301C00332010283328102033301038333810347
S11301D00334010483348104033501058335810527
S11301E00336010683368106033701078337810707
S11301F003380108833881080339010983398109E7
S1130200033A010A833A810A033B010B833B810BC6
S1130210033C010C833C810C033D010D833D810DA6
S1130220033E010E833E810E033F010F833F810F86
S11302301301011173110134730020301300000005
S113024000000000000000000000000000000000AA
S113100000000000000000000000000000000000DC
S113101000000000000000000000000000000000CC
S113102000000000000000000000000000000000BC
S113103000000000000000000000000000000000AC
S10B10400000000000000000A4
S113104883B705002380A70083B70500938717009B
S113105823B0F50067800000130101FF23308100ED
S1131068233411009307A00013040500630EF50050
S11310781375F40FEF00D028833081000334010086
S113108813010101678000001305D000EF00502709
S11310981375F40FEF00D026833081000334010068
S11310A81301010167800000B707002023AA070085
S11310B867800000732700B097370000938707F410
S11310C8631C050083B6070017260000130606AC48
S11310D823B8C7003307D74023B0E700732720B0ED
S11310E8631C050083B6870017260000130686AA2A
S11310F823BCC7003307D74023B4E7006780000048
S11311086310050067800000B3E7C500B367F50006
S113111893F77700B306C500638407023386C500D6
S113112893070500637ED50203C705009385150060
S113113893871700A38FE7FEE398C5FE6780000036
S1131148E37ED5FE9307050003B705009387870060
S11311589385850023BCE7FEE3E8D7FE678000009B
S113116867800000130101FFB367C50023308100C5
S11311782334110093F77700130405003307C500DF
S1131188638207026376E50093F5F50FEFF09FFDA0
S113119883308100130504000334010013010101A5
S11311A86780000093F5F50F93968500B3E5B600C4
S11311B893960501B3E5B60093960502B3E6B60027
S11311C8E378E5FC930705009387870023BCD7FEE3
S11311D8E3ECE7FE833081001305040003340100C7
S11311E8130101016780000083470500638E07002F
S11311F89307050003C7170093871700E31C07FE2E
S11312083385A7406780000013050000678000004D
S1131218B306B50093070500639805006F00400204
S113122893871700638AF60003C70700E31A07FECB
S11312383385A740678000003385A6406780000097
S11312481305000067800000130101EA23388114A4
S1131258233491142330211523345113233061137B
S1131268233C7111233C1114233C311323384113BB
S113127823388111233491112330A1111309050056
S11312889384050013040600138B0600930A500286
S1131298971B0000938B8B746F0040016300050655
S11312A89385040013041400E700090003450400AF
S11312B8E31655FF83461400130A140013070A00A3
S11312C8930C00029309F0FF130DF0FF13080000BC
S11312D813065005930590009B87D6FD93F7F70FE7
S11312E8130417006366F60693972700B3877701FC
S11312F883A70700B38777016780070083308115C8
S11313080334011583348114033901148339811397
S1131318033A0113833A8112033B0112833B81117F
S1131328033C0111833C8110033D01101301011694
S113133867800000938C0600834617001307040097
S1131348130417009B87D6FD93F7F70FE37EF6F88F
S11313589385040013055002E700090013040A00EA
S11313686FF0DFF49B8906FD83461700130704001A
S11313789B8706FD1B85060063E6F5028346170076
S11313889B972900BB8937019B991900BB89A90040
S11313989B8706FD130717009B8909FD1B8506001B
S11313A8E3FEF5FCE35A0DF2138D09009309F0FFEF
S11313B86FF09FF283461700130704006FF0DFF104
S11313C89385040013055002E70009006FF01FEE2F
S11313D883290B0083461700130B8B0013070400A3
S11313E86FF05FFC1305000393850400E700090010
S11313F89385040013058007E700090093068B0012
S11314081307000183370B00138B0600B3F9E702B7
S11314189B8C0C0093064100130C1000232031010F
S113142863E4E71AB3D7E70293864600130A0C006D
S11314381B0C1C00B3F9E70223AE36FFE3F4E7FE06
S1131448635EAC011B0D0D001B0DFDFF93850400AD
S113145813850C00E7000900E348ACFF131A2A00BF
S1131468330A4101930C0100130C90006F00C00073
S11314788329CAFF130ACAFF1305700563643C0174
S113148813050003938504003B053501E7000900B3
S1131498E3109AFF6FF09FE193071000130A8B0083
S11314A863C407016308081283390B0063C0091475
S11314B893870900130B0A001307A0006FF01FF5A8
S11314C8834617001B081800130704006FF0DFE0B9
S11314D8130700019307100093068B00E3C407F376
S11314E8E31208F283670B00138B06006FF01FF2F8
S11314F8033A0B00130B8B0063080A106356A00908
S11315089307D002639CFC0403450A0063080502A0
S1131518130CF0FF63C609009B89F9FF638E8901E8
S113152893850400130A1A00E700090003450A001A
S11315381B0DFDFFE31005FEE35AA0D71B0DFDFFAD
S11315489385040013050002E7000900E3180DFE63
S11315586FF0DFD5171A0000130ACA6493850900CF
S113156813050A00EFF0DFCA3B0DAD40635EA0012E
S11315789B8C0C001B0DFDFF9385040013850C0048
S1131588E7000900E3180DFE03450A00E30005D24D
S1131598130CF0FF6FF01FF89347FDFF93D7F74341
S11315A8337DFD00834617001B0D0D00130704004F
S11315B86FF09FD203250B0093850400130B8B0057
S11315C8E70009006FF09FCE130A0000E34CACE774
S11315D86FF0DFE883290B006FF05FED13078000DD
S11315E86FF05FEF1307A0006FF0DFEE9385040040
S11315F81305D002E7000900130B0A00B3073041B2
S11316081307A0006FF09FE06356A0019307D00270
S1131618E392FCF4171A0000130ACA58130580024F
S1131628130CF0FF6FF01FEF130101FA130381028B
S1131638130E05002334B1022338C102233CD1021E
S113164817050000130585A19306030013060E0071
S113165893050000233C11002330E1042334F104F2
S113166823380105233C110523346100EFF0DFBD65
S1131678833081011305000013010106678000000F
S11316882320B500138605009305050017150000EF
S11316981305C5516FF05FF9930505003705002060
S11316A8130545006FF0DFFD370500209305F0FFB3
S11316B8130545006FF0DFFC0326050093070500BA
S11316C8171500001305855023A0C500938507004E
S11316D86FF09FF503260500BB07B040938605000D
S11316E83B07C0406308F702130101FF9305050097
S11316F8171500001305854F23341100EFF0DFF2AE
S1131708833081003755CEAC1305E55E1301010122
S11317186FF09FF893050500171500001305055091
S11317286FF09FF0832705009386050013070600D2
S1131738BB85C7023B06D602638AC502130101FFB3
S113174893050500138607001715000013050550B7
S113175823341100EFF05FED833081003755CEACB0
S11317681305E55E130101016FF01FF393050500EE
S11317781386070017150000130545516FF0DFEABB
S1131788130101FF233081002334110013040500E1
S1131798631005049317140093E717001707000054
S11317A81307C7852330F700130000001300000057
S11317B8B707002023AA0700833507001715000080
S11317C81305C550EFF05FE6730010006F000000CA
S11317D81B050500EFF05FEC6FF0DFFB130101FF61
S11317E823341100EFF0DFF9130101FF130560083A
S11317F823341100EFF0DFF8130101FF2334110043
S1131808F3272034130730009B870700639EE70201
S1131818B717E0009397870023A0070023A20700C7
S1131828171500001305854BEFF01FE0B7070040BC
S11318381307000067870700833081001305000041
S1131848130101016780000013059053EFF05FF363
S11318586FF09FDD130101FD930705002334110286
S11318681305810013067101130890006F008000AE
S11318781306070093F6F700138706009305000381
S11318886374D800930570053B07B7002300E6008E
S113189893D747001307F6FFE31CC5FC230C01008C
S11318A8EFF09FD8833081021301010367800000A1
S11318B8130101FA13030103233081022334A10025
S11318C82338C102233CD102130405001386050002
S11318D817F5FFFF130505779305810093060300A9
S11318E8233411022334F1042330E104233801059D
S11318F8233C1105233C6100EFF01F9583378100D9
S11319082380070003358100833081023B0585402D
S1131918033401021301010667800000130101F575
S11319282330810A233C91081714000003348408E7
S11319389714000083B484082334110A2338210936
S1131948B304944023343109233041099309050031
S1131958138A0500233C5107EF00C01E130502003B
S1131968138604009765000093854519930A0200BD
S1131978EFF08FF9171600000336C604930500002C
S113198833859A0033068640EFF0CFFD93050A00AD
S113199813850900EF00D05E9305000013050000CD
S11319A8EF00D073972400009384446583B6040041
S11319B81309F103137909FC130405006390060461
S11319C883B684006396060013050400EFF05FDB1A
S11319D89309090003B684011385090097150000CB
S11319E89385C531EFF0DFECB389A900E30E39FD27
S11319F813050900EFF05FC36FF01FFD03B6040180
S1131A08971500009385852F13050900EFF05FEA09
S1131A1883B68400B309A900E38A06FC6FF09FFB30
S1131A2883470500938515001305150003C7F5FFC3
S1131A38638A0700E386E7FE1B8507003B05E5404C
S1131A4867800000130500006FF05FFF930705002F
S1131A5803C705009387170093851500A38FE7FE36
S1131A68E31807FE67800000034705009306000299
S1131A78930705006318D70003C717009387170057
S1131A88E30CD7FE9306D0026300D7069306B00290
S1131A986300D70483C60700930500006382060425
S1131AA813050000938717001B8606FD13172500EE
S1131AB883C607003305A700131515003305A600D0
S1131AC8E39206FE638005023305A04067800000A8
S1131AD883C617009305000093871700E39206FC5A
S1131AE8130500006780000083C6170093051000E3
S1131AF893871700E39606FA130500006FF09FFE1C
S1131B08B777E0079397570023A0A70067800000E2
S1131B183777E007130101FF13175700832747009E
S1131B289B8707002326F1008327C10093F717003A
S1131B38E38607FE03250700130101011375F50F5A
S1131B4867800000B777E0079397570017170000DE
S1131B58233AF75A1307300023A4E70023A0070009
S1131B68678000009307F00063E0A70213150502DD
S1131B7897170000938707FC1355E5013385A700E1
S1131B880325050067800000130101FF17150000F5
S1131B981305C51723341100EFF01FA98330810002
S1131BA8130500001301010167800000130101FE01
S1131BB8233881001304050013050600233491001B
S1131BC8233C110093840500EFF0DFF99B0705001F
S1131BD8638607041307F00F636487023B85870055
S1131BE883308101033401011315050213550502DD
S1131BF823209500833481001301010267800000CB
S1131C0803340101833081018334810017150000F6
S1131C1813054513130101026FF01FA103340101D9
S1131C28833081018334810017150000130585185A
S1131C38130101026FF05F9F13060500930520004E
S1131C48130500006FF09FF6130101FF2330810094
S1131C581304050013060400930500001305000887
S1131C6823341100EFF09FF4130604000334010039
S1131C788330810093050000130540081301010116
S1131C886FF0DFF2130101FE23388100130405000D
S1131C9813850500233C110023349100EFF09FECD9
S1131CA89B070500638007061307F00F6368870224
S1131CB83B85870013150502135505028324050087
S1131CC883308101033401019B84040013850400DB
S1131CD88334810013010102678000001715000096
S1131CE813054512EFF05F94833081010334010139
S1131CF89304000013850400833481001301010256
S1131D0867800000171500001305C50AEFF0DF917E
S1131D188330810103340101138504008334810075
S1131D2813010102678000009387050093050500ED
S1131D38638C0702130710006396E7001305400835
S1131D486FF05FF4130101FF171500001305051266
S1131D5823341100EFF05F8D8330810013050000F8
S1131D681301010167800000130500086FF09FF15B
S1131D78130101FF93050500130500002334110026
S1131D88EFF05FF083308100137515001301010132
S1131D986780000083274500032785000323050087
S1131DA80328C5001B5EF701032605019BD2F70132
S1131DB88326450193080500BB8757003B05C701E7
S1131DC89B5FF30103A788011B5FF80193F71700D2
S1131DD8137515009B5EF6013B05C541BB8757404B
S1131DE83B03F3013B08E8011BDEF6011B15250044
S1131DF89B97170013731300137818003B06D6013A
S1131E089B58F701B3E7A7003B03F3413B08E841BC
S1131E1813761600BB86C601B3E767001B183800A3
S1131E283B06D64193F616003B0717011B164600DE
S1131E38B3E70701BB86C64113771700B3E7C700AA
S1131E489B9656003B071741B3E7D7001B1767005B
S1131E58B3E7E70013860500130500009B85070018
S1131E686FF0DFD4130101FD938805009305050085
S1131E781305010023341102232201002320110138
S1131E882324C1002326D1002328E100232AF100BA
S1131E98232C0101EFF01FF08330810213010103A9
S1131EA86780000083274500832685000327C50033
S1131EB8032605009BD8F7419BD8B8011BDEF60121
S1131EC81B58F741BB871701BB86C6011B53F60194
S1131ED81B58A80193F7F70193F61600032505018B
S1131EE8BB871741BB86C6413B0666003B07070113
S1131EF89B9666009B971700137616001377F703D3
S1131F08B3E7D7003B0666403B070741B3E7C70082
S1131F181B1777009B06F5FFB3E7E7001B97D6006E
S1131F28B3E7E700138605001305C00F9B85070078
S1131F386FF0DFC78326C500832745000326850085
S1131F48032705011BDEF641032505009BDEF74147
S1131F581B58F6019B5F5E019BDEBE011B07F7FF62
S1131F683B0606019B58F7413B83DF00BB87D7013B
S1131F781B5FF5011B5EAE019BD8280193F7F7019F
S1131F88137616001373F37F3B03F3413B060641B4
S1131F98BB87D7413B08E501BB06DE003B071701B9
S1131FA81B1666001B55F3419B97170013781800FE
S1131FB893F6F60313172703B3E7C7003B08E84172
S1131FC81B56A501BB86C641135727039B9676006B
S1131FD83B066600B3E707013B071741B3E7D700A1
S1131FE81B17D7009B566640B3E7E7001B97B6015B
S1131FF8B3E7E700138605001305C00F9B850700A8
S11320086FF0DFBA6FF01FEA130101FE2338810075
S113201823349100233C1100938405001304050024
S1132028EFF05FE883254401033401018330810123
S113203813860400833481001305C00F13010102C1
S11320486FF0DFB6130101FE2338810023349100B9
S1132058233C11009384050013040500EFF09FED61
S1132068832544010334010183308101138604006C
S1132078833481001305C00F130101026FF01FB3ED
S1132088130101F99308100023308106233C9104BD
S11320982338210523343105233C510323386103B4
S11320A8138405002334110623304105232001003D
S11320B823220100232401002326010023281101DF
S11320C8232C0100232E01002320010223220102D4
S11320D8232411032326010293056000930A0500B3
S11320E89304060013090700138B070093090800DB
S11320F863E2850A13074000636A870863140408C7
S113210813050000638C04043707080063609718FC
S11321181307F0031B060400636027179B8404005D
S11321281B0709001B8809009B070B009306400046
S113213863EA860C6312040C1305010093850A00F4
S11321482320F1002322C100232401012326E100D6
S113215823289100EFF01FD5130510008330810662
S11321680334010683348105033901058339810465
S1132178033A0104833A8103033B01031301010772
S1132188678000001B07F4FF63ECE80A2326D102EA
S11321986FF01FF71B0774FF130A070063E2E810C8
S11321A82326D10237470000636EC70A1307F07F5E
S11321B81B040400636827119B8404001B0709009F
S11321C81B8809009B070B009306100063E0460771
S11321D81305810193850A00232CF100232E810025
S11321E8232001032322E10223249102EFF09FE537
S11321F8130520006FF09FF61B04F4FF93061000EC
S113220863E686021305810193850A00232CF100F5
S1132218232EC100232001032322E1022324910257
S1132228EFF09FDE130520006FF05FF31715000031
S11322381305C5D7EFF04FBF130510006FF01FF259
S113224817150000130585D6EFF00FBE9304100090
S1132258930700001307000013080000130600008A
S11322686FF0DFEC171500001305C5CBEFF0CFBBFB
S1132278130400006FF05FF417150000130505C67A
S1132288EFF08FBA130600006FF05FE9171500002E
S1132298130545C1EFF04FB9130600006FF01FE8AE
S11322A817150000130585D0EFF00FB8930410003C
S11322B8930700001307000013080000130400002C
S11322C86FF09FF017150000130545C9EFF0CFB55F
S11322D8130400006FF05FEE130101F22338410B81
S11322E8130A10002334910C2330210D233C310BA5
S11322F82334510B233C710923349109233CB1073E
S113230813890700233C110C2338810C2330610BFB
S1132318233881092330A109930A0500938D050008
S1132328233CC102938B0600930407009309080019
S1132338938C08002320010423220104232401048C
S11323482326010423284105232C0104232E0104F8
S113235823200106232201062324410723260106FC
S1132368EFF09F8D9307200063F4B7399B877DFFB7
S1132378130400006368FA0237470000930700005B
S11323883334700163707703B7C6FFFF3747000023
S1132398BB8B76011B8407009B871700E36A77FFD2
S11323A81B042400B707080063FC27393707F8FF24
S11323B89B07F7FFBB07F9009BD737013B072701AA
S11323C89B9637013B07D7402334E1001B8927003C
S11323D863880C1093972B031B87190093D7270343
S11323E83B077703B70608009386F6FFB3F6DB00CE
S11323F8130C00001B8B0900233CD1001B8A7DFFB2
S1132408BB8737032338F1029B0707002330F10207
S1132418BB07E0402338F100130D00009B09F4FFCB
S1132428630C0406631409006384A91F130760007E
S11324386366B71113074000636EB71763880D14FA
S11324481B87FDFF9306100063ECE61A1B870D003B
S113245863040D166384A917B706F8FF63F0D4263E
S1132468B7060800BB849600B707080093850A00DE
S113247813058105232C0104232EE10423200106DE
S1132488232261072324F10623269106EFF0DFB700
S11324981B0D1D00E3188DF8930710006308F91C41
S11324A86314092C03378100630807029B87FCFF28
S11324B8B387874193B7170093850A00130501046E
S11324C82320F104232201042324010423260104E4
S11324D82328E104EFF01F9D1B0C1C00E39E8CF3E2
S11324E80336810313850A001308000093070000CC
S11324F8130700009306000093051000EFF09F9661
S11325088330810D0334010D8334810C0339010CAC
S11325188339810B033A010B833A810A033B010A8D
S1132528833B8109033C0109833C8108033D01087D
S1132538833D81071301010E678000001307100013
S11325486360470D1B870D0063060D0E638EA91982
S11325588337010163F8F41483370102BB849700BD
S1132568232EE10493850A003747000013058105EB
S1132578232C010423200106232261072324E106D6
S113258823269106EFF01FAC6FF09FF013070000AD
S113259893850A00130501042320E104232201047E
S11325A8232401042326610523287105EFF09F8F56
S11325B86FF01FEE1B870D00E398A9EB930600004C
S11325C88337810193850A00130581052326910623
S11325D8232CD104232EE10423200106232261079E
S11325E823247107BB849700EFF01FA26FF05FEA02
S11325F8130760006360B70F130740006366B703EF
S113260817150000130505A2EFF00F826FF05FE8BD
S11326181B87FCFFE31C87E113072000E36AB7FD6F
S113262813071000E3860DF61B870D0093061000B0
S11326386FF01FF993060000E39409F2833701034E
S113264893850A001305810523269106232CD104BA
S1132658232EE10423200106232261072324710782
S1132668BB849700EFF01F9E6FF09FE29B87FCFFEF
S11326786380870D93060000B70708001307F0FF6F
S113268893850A00130501042320D104232201049D
S1132698232401042326E1042328F104EFF09F8076
S11326A86FF05FE0171500001305C5932334E102AA
S11326B8EFE09FF7033781026FF09FEA17150000D8
S11326C8130545922334E102EFE01FF60337810234
S11326D86FF09FD913071000E36447F31B870D00BD
S11326E8930610006FF09FF5930600006FF01FF536
S11326F813040000E3880DCAB707080063FC7705D4
S1132708B707F8FF1B84F7FF3B848B001B54340185
S1132718BB8777019B1B3401BB8B77419B07240044
S11327281B04340037470000E36077C76FF09FC786
S11327388327810093061000130700006FF05FF4ED
S113274823340100E30609C82334210113091000C6
S11327586FF01FC813040000E3860BC413042000A1
S1132768930710006FF01FFC1B07E9FF9306000096
S1132778B70708006FF0DFF0930810006FF0DFB5BB
S113278867800000130101FB23341104233C9102E8
S11327982334310323386101233471019304050080
S11327A893890500930B0600138B060023308104DC
S11327B82338210323304103233C5101EFF0CFC7D1
S11327C813850400EFF04FC8B707080063F2770FCA
S11327D83707F8FF9B07F7FFBB8AFB003709080098
S11327E83B09690133F7EA003B09E90013040B00CC
S11327F8370A080093060400130800003B048A0003
S113280893070000130700003706080093850900A2
S113281813850400EFF0DF86E31E24FD9BDA3A01FA
S11328289B851A003706F8FFBB0B76019B9A3A0181
S11328389B973501BB8B5B413B8B670117150000E8
S113284813054582EFE05FDE93060B0013860B0049
S1132858938509001308000093071000130700006C
S113286813850400EFF0DF8103340104833081040D
S11328780339010383398102033A0102833A81014E
S1132888033B0101833B81001385040083348103E6
S113289813080000930700001307000093061000B4
S11328A81306000093051000130101056FF08FDB78
S11328B8930500006FF09FF8130101FF170500004E
S11328C81305454223341100EFE01FD683308100FD
S11328D81305F0FF1301010167800000F32740F19D
S11328E8130750009B8607006364D7029397070277
S11328F893D70702170700001307C72793972700E2
S1132908B387E70083A70700B387E700678007005A
S11329186F0000006F0000006F0000006F000000EF
S11329286F0000006F000000130101FF170500008D
S11329381305C5732334110023308100EFE0DFCE83
S113294813050000EFF04FB0B706000A1306002085
S11329589305200013050000EFF0DFE213050000E3
S1132968EFF08FAD170400001304C4716F00C000AA
S113297813050400EFE05FCB13050000EFF04FBF31
S11329889B070500E39607FE1705000013058571EC
S1132998EFE09FC983308100033401001305000070
S10B29A8130101016780000026
S11329B00000000000000000000000000000000013
S11329C00000000000000000000000000000000003
S11329D0FFFFFFFFFFFFFFFF0000000000000000FB
S11329E0DCE9FFFF78E9FFFFE8E9FFFF78E9FFFF93
S11329F078E9FFFF78E9FFFF78E9FFFFF8E9FFFFD7
S1132A0078E9FFFF78E9FFFF5CE9FFFFC0EBFFFF18
S1132A1078E9FFFF5CE9FFFF8CE9FFFF8CE9FFFF2A
S1132A208CE9FFFF8CE9FFFF8CE9FFFF8CE9FFFFD6
S1132A308CE9FFFF8CE9FFFF8CE9FFFF78E9FFFFDA
S1132A4078E9FFFF78E9FFFF78E9FFFF78E9FFFF06
S1132A5078E9FFFF78E9FFFF78E9FFFF78E9FFFFF6
S1132A6078E9FFFF78E9FFFF78E9FFFF78E9FFFFE6
S1132A7078E9FFFF78E9FFFF78E9FFFF78E9FFFFD6
S1132A8078E9FFFF78E9FFFF78E9FFFF78E9FFFFC6
S1132A9078E9FFFF78E9FFFF78E9FFFF78E9FFFFB6
S1132AA078E9FFFF78E9FFFF78E9FFFF78E9FFFFA6
S1132AB078E9FFFF78E9FFFF78E9FFFF78E9FFFF96
S1132AC078E9FFFF78E9FFFF78E9FFFF78E9FFFF86
S1132AD078E9FFFF78E9FFFF78E9FFFF78E9FFFF76
S1132AE0DCEBFFFFC0EAFFFF78E9FFFF78E9FFFFB7
S1132AF078E9FFFF78E9FFFF78E9FFFF78E9FFFF56
S1132B0078E9FFFFE8EAFFFF78E9FFFF78E9FFFFD4
S1132B1004ECFFFF0CEAFFFF78E9FFFF78E9FFFF11
S1132B2018EBFFFF78E9FFFF0CECFFFF78E9FFFFEC
S1132B3078E9FFFFF8EAFFFF005008FC005009FCA9
S1132B40005009FC005009FC005009FC005009FC2D
S1132B50005009FC005009FC005009FC005009FC1D
S1132B60005009FC005009FC005009FC005009FC0D
S1132B70005009FC005009FCB8FDFFFFACFDFFFF4D
S1132B80B0FDFFFFB4FDFFFFA4FDFFFFA8FDFFFFA5
S1132B906D6379636C6500006D696E73747265743E
S1132BA00000000000000000286E756C6C29000015
S1132BB05733323A20414444523D307825783B2003
S1132BC057444154413D307825783B0A00000000C9
S1132BD05233323A20414444523D307825783B20E8
S1132BE052444154413D307825783B0A00000000AE
S1132BF04552524F523A20524533323A20414444CE
S1132C00523D307825783B2052444154413D307840
S1132C1025783B204558503D307825783B0A000004
S1132C2044454255473A20524533323A20414444C0
S1132C30523D307825783B2052444154413D307810
S1132C4025783B204558503D307825780A0000000F
S1132C505B4552524F525D2052454D33323A20412A
S1132C604444523D307825783B2052444154413D00
S1132C70307825783B204558503D307825783B20E6
S1132C804D534B3D307825783B0A0000000000008E
S1132C905B44454255475D2052454D33323A20410D
S1132CA04444523D307825783B2052444154413DC0
S1132CB0307825783B204558503D307825783B20A6
S1132CC04D534B3D307825783B0A0000000000004E
S1132CD00A746F686F73743A2025780A0000000044
S1132CE06A756D7000000000496D706C656D656EED
S1132CF074206D61696E28292C20666F6F210A008B
S1132D002573203D2025640A000000000000000017
S1132D100A0A4552524F5220535720536166655454
S1132D20493A20496E6A6563746F722041504220AB
S1132D3061646472657373206E6F7420666F756E60
S1132D40642E0A00000000000A0A4552524F522025
S1132D505357205361666554493A20536F6674771C
S1132D6061726520747269656420746F207772697A
S1132D707465206F7574736964652074686520696F
S1132D806E6A6563746F72277320616C6C6F636124
S1132D90746564206D656D6F72792073706163650D
S1132DA0204150425F4D454D5F53504143452E0AEB
S1132DB000000000000000000A0A4552524F522051
S1132DC05357205361666554493A205361666554EC
S1132DD0492063616E6E6F7420626520616C6C6F54
S1132DE06361746564206174206261736520616449
S1132DF06472657373203078303030303030303066
S1132E000A000000000000000A0A4552524F5220F6
S1132E105357205361666554493A20536F6674775B
S1132E2061726520747269656420746F20726561D3
S1132E3064206F7574736964652074686520696EB5
S1132E406A6563746F72277320616C6C6F6361745D
S1132E506564206D656D6F727920737061636520A0
S1132E604150425F4D454D5F53504143452E0A004A
S1132E700A0A4552524F52205357205361666554F3
S1132E80493A20526561642066726F6D20636F75E4
S1132E906E746572206E6F7420666F756E642E0A90
S1132EA000000000000000000A0A4552524F522060
S1132EB05357205361666554493A2053697A652013
S1132EC0746F6F206269672C206D6178696D756D10
S1132ED0206973203532343238382E0A000000005D
S1132EE00A0A4552524F5220535720536166655483
S1132EF0493A2044657363726970746F7220726515
S1132F007065746974696F6E20636F756E74207474
S1132F106F6F206269672C206D6178696D756D2013
S1132F2069732036332E0A000A0A4552524F522042
S1132F305357205361666554493A2053697A652092
S1132F40746F6F206269672C206D6178696D756D8F
S1132F502069732031363338342E0A000000000013
S1132F600A0A4552524F5220535720536166655402
S1132F70493A2044657363726970746F7220726594
S1132F807065746974696F6E20636F756E742074F4
S1132F906F6F206269672C206D6178696D756D2093
S1132FA0697320323034372E0A000000000000001C
S1132FB00A0A4552524F52205357205361666554B2
S1132FC0493A2044657363726970746F722074792E
S1132FD07065206E6F7420737570706F72746564A1
S1132FE02E0A00000000000041545441434B5F414D
S1132FF04444522033322D626974206F76657266C0
S11330006C6F772070726576656E746564206F6E80
S113301020696E6A6563746F722070726F67726183
S11330206D6D696E672E0A004552524F523A205513
S11330306E737570706F7274656420646573637207
S11330406970746F722074797065206F6E20696E78
S11330506A656374696F6E2070726F6772616D2E3A
S1133060000000000000000069203D2025750A00D2
S11330705354415254204558504552494D454E549D
S1133080530A00000000000057616974696E6720EC
S1133090666F7220696E6A6563746F7220746F2044
S11330A073746F702E0A000046494E4953484544D4
S11030B0204558504552494D454E540A00E4
S11330C000000000000000000000000000000000FC
S11330D000000000000000000000000000000000EC
S11330E000000000000000000000000000000000DC
S11330F000000000000000000000000000000000CC
S10B31000000000000000000C3
S9030000FC
